{
  "abi": [
    {
      "inputs": [],
      "stateMutability": "nonpayable",
      "type": "constructor"
    },
    {
      "inputs": [],
      "name": "ADDRESSES_PROVIDER",
      "outputs": [
        {
          "internalType": "contract ILendingPoolAddressesProvider",
          "name": "",
          "type": "address"
        }
      ],
      "stateMutability": "view",
      "type": "function"
    },
    {
      "inputs": [],
      "name": "LENDING_POOL",
      "outputs": [
        {
          "internalType": "contract ILendingPool",
          "name": "",
          "type": "address"
        }
      ],
      "stateMutability": "view",
      "type": "function"
    },
    {
      "inputs": [
        {
          "internalType": "address",
          "name": "symbol",
          "type": "address"
        },
        {
          "internalType": "address",
          "name": "csymbol",
          "type": "address"
        }
      ],
      "name": "approve",
      "outputs": [],
      "stateMutability": "nonpayable",
      "type": "function"
    },
    {
      "inputs": [
        {
          "internalType": "address[]",
          "name": "assets",
          "type": "address[]"
        },
        {
          "internalType": "uint256[]",
          "name": "amounts",
          "type": "uint256[]"
        },
        {
          "internalType": "uint256[]",
          "name": "premiums",
          "type": "uint256[]"
        },
        {
          "internalType": "address",
          "name": "initiator",
          "type": "address"
        },
        {
          "internalType": "bytes",
          "name": "params",
          "type": "bytes"
        }
      ],
      "name": "executeOperation",
      "outputs": [
        {
          "internalType": "bool",
          "name": "",
          "type": "bool"
        }
      ],
      "stateMutability": "nonpayable",
      "type": "function"
    },
    {
      "inputs": [
        {
          "internalType": "address[]",
          "name": "assets",
          "type": "address[]"
        },
        {
          "internalType": "uint256",
          "name": "amountOwed",
          "type": "uint256"
        },
        {
          "components": [
            {
              "internalType": "address",
              "name": "c_TOKEN_BORROWED",
              "type": "address"
            },
            {
              "internalType": "address",
              "name": "c_TOKEN_COLLATERAL",
              "type": "address"
            },
            {
              "internalType": "address",
              "name": "TOKEN_COLLATERAL",
              "type": "address"
            },
            {
              "internalType": "address",
              "name": "BORROWER",
              "type": "address"
            },
            {
              "internalType": "uint256",
              "name": "MAX_SEIZE_TOKENS_TO_SWAP_WITH",
              "type": "uint256"
            }
          ],
          "internalType": "struct Constants.LiquidationParameters",
          "name": "liqParams",
          "type": "tuple"
        }
      ],
      "name": "swap",
      "outputs": [
        {
          "internalType": "bool",
          "name": "",
          "type": "bool"
        }
      ],
      "stateMutability": "nonpayable",
      "type": "function"
    },
    {
      "stateMutability": "payable",
      "type": "receive"
    }
  ],
  "bytecode": {
    "object": "0x60806040523480156200001157600080fd5b50600180546001600160a01b03191633179055604051737a250d5630b4cf539739df2c5dacb4c659f2488d906000906200005e906c3ab734b9bbb0b82937baba32b960991b8152600d0190565b90815260408051918290036020908101832080546001600160a01b03959095166001600160a01b03199586161790557f636f6d706f756e64436f6d7074726f6c6c657200000000000000000000000000835260006013840181905282519384900360330184208054733d9819210a31b4961b30ef54be2aed79b9c9cd3b908716179055630ae8aa8960e31b84526004808501919091528251938490036024018420805473c02aaa39b223fe8d0a0e5c4f27ead9083c756cc29087161790556003805490951673b53c1a33016b2dc2ff3653530bff1848a515c8c5908117909555630261bf8b60e01b84529151630261bf8b938084019390829003018186803b1580156200016a57600080fd5b505afa1580156200017f573d6000803e3d6000fd5b505050506040513d601f19601f82011682018060405250810190620001a5919062000b67565b600480546001600160a01b0319166001600160a01b0392909216919091179055620001f9736b175474e89094c44da98b954eedeac495271d0f735d3a536e4d6dbd6114cc1ead35777bab948e3643620003aa565b6200022d732260fac5e5542a773aa44fbcfedf7c193bc2c59973c11b1268c1a384e55c48c2391d8d480264a3a7f4620003aa565b62000261730d8775f648430679a709e98d2b0cb6250d2887ef736c8c6b02e7b2be14d4fa6022dfd6d75921d90e4e620003aa565b62000295731f9840a85d5af5bf1d1762f925bdaddc4201f9847335a18000230da775cac24873d00ff85bccded550620003aa565b620002c973a0b86991c6218b36c1d19d4a2e9eb0ce3606eb487339aa39c021dfbae8fac545936693ac917d5e7563620003aa565b620002fd73e41d2489571d322189246dafa5ebde1f4699f49873b3319f5d18bc0d84dd1b4825dcde5d5f7266d407620003aa565b6200033173c00e94cb662c3520282e6f5717214004a7f268887370e36f6bf80a52b3b46b3af8e106cc0ed743e8e4620003aa565b6200036573dac17f958d2ee523a2206206994597c13d831ec773f650c3d88d12db855b8bf7d11be6c55a4e07dcc9620003aa565b620003a460006040516200038390630ae8aa8960e31b815260040190565b908152604051908190036020019020546001600160a01b03166000620003aa565b62000c15565b73dac17f958d2ee523a2206206994597c13d831ec76001600160a01b03831614156200047e5781620003f56001600160a01b038216836000196200082b602090811b620014ed17901c565b6004546200041f906001600160a01b0383811691166000196200082b602090811b620014ed17901c565b62000479600060405162000446906c3ab734b9bbb0b82937baba32b960991b8152600d0190565b90815260405160209181900382019020546001600160a01b0384811692911690600019906200082b811b620014ed17901c565b505050565b604051630ae8aa8960e31b8152600090600401908152604051908190036020019020546001600160a01b03838116911614156200064a57604051630ae8aa8960e31b815260009060040190815260405190819003602001812054600280546001600160a01b0319166001600160a01b039283169081179091556004805463095ea7b360e01b8552919363095ea7b3936200053293169160001991016001600160a01b03929092168252602082015260400190565b602060405180830381600087803b1580156200054d57600080fd5b505af115801562000562573d6000803e3d6000fd5b505050506040513d601f19601f8201168201806040525081019062000588919062000b99565b506002546040516c3ab734b9bbb0b82937baba32b960991b81526001600160a01b039091169063095ea7b390600090600d01908152604051908190036020018120546001600160e01b031960e084901b1682526001600160a01b031660048201526000196024820152604401602060405180830381600087803b1580156200060f57600080fd5b505af115801562000624573d6000803e3d6000fd5b505050506040513d601f19601f8201168201806040525081019062000479919062000b99565b60405163095ea7b360e01b81526001600160a01b038281166004830152600019602483015283919082169063095ea7b390604401602060405180830381600087803b1580156200069957600080fd5b505af1158015620006ae573d6000803e3d6000fd5b505050506040513d601f19601f82011682018060405250810190620006d4919062000b99565b506004805460405163095ea7b360e01b81526001600160a01b0391821692810192909252600019602483015282169063095ea7b390604401602060405180830381600087803b1580156200072757600080fd5b505af11580156200073c573d6000803e3d6000fd5b505050506040513d601f19601f8201168201806040525081019062000762919062000b99565b50806001600160a01b031663095ea7b3600060405162000795906c3ab734b9bbb0b82937baba32b960991b8152600d0190565b908152604051908190036020018120546001600160e01b031960e084901b1682526001600160a01b031660048201526000196024820152604401602060405180830381600087803b158015620007ea57600080fd5b505af1158015620007ff573d6000803e3d6000fd5b505050506040513d601f19601f8201168201806040525081019062000825919062000b99565b50505050565b801580620008b95750604051636eb1769f60e11b81523060048201526001600160a01b03838116602483015284169063dd62ed3e9060440160206040518083038186803b1580156200087c57600080fd5b505afa15801562000891573d6000803e3d6000fd5b505050506040513d601f19601f82011682018060405250810190620008b7919062000bbd565b155b620009315760405162461bcd60e51b815260206004820152603660248201527f5361666545524332303a20617070726f76652066726f6d206e6f6e2d7a65726f60448201527f20746f206e6f6e2d7a65726f20616c6c6f77616e63650000000000000000000060648201526084015b60405180910390fd5b604080516001600160a01b038416602482015260448082018490528251808303909101815260649091019091526020810180516001600160e01b0390811663095ea7b360e01b17909152620004799185916200098916565b620009a8826001600160a01b031662000b2a60201b620016331760201c565b620009f65760405162461bcd60e51b815260206004820152601f60248201527f5361666545524332303a2063616c6c20746f206e6f6e2d636f6e747261637400604482015260640162000928565b600080836001600160a01b03168360405162000a13919062000bd7565b6000604051808303816000865af19150503d806000811462000a52576040519150601f19603f3d011682016040523d82523d6000602084013e62000a57565b606091505b50915091508162000aab5760405162461bcd60e51b815260206004820181905260248201527f5361666545524332303a206c6f772d6c6576656c2063616c6c206661696c6564604482015260640162000928565b80511562000825578080602001905181019062000ac9919062000b99565b620008255760405162461bcd60e51b815260206004820152602a60248201527f5361666545524332303a204552433230206f7065726174696f6e20646964206e6044820152691bdd081cdd58d8d9595960b21b606482015260840162000928565b6000813f7fc5d2460186f7233c927e7db2dcc703c0e500b653ca82273b7bfad8045d85a47081811480159062000b5f57508115155b949350505050565b60006020828403121562000b7a57600080fd5b81516001600160a01b038116811462000b9257600080fd5b9392505050565b60006020828403121562000bac57600080fd5b8151801515811462000b9257600080fd5b60006020828403121562000bd057600080fd5b5051919050565b6000825160005b8181101562000bfa576020818601810151858301520162000bde565b8181111562000c0a576000828501525b509190910192915050565b611e978062000c256000396000f3fe60806040526004361061004e5760003560e01c80630542975c1461005a5780634d37e54e146100975780637e5465ba146100c7578063920f5c84146100e9578063b4dcfc771461010957600080fd5b3661005557005b600080fd5b34801561006657600080fd5b5060035461007a906001600160a01b031681565b6040516001600160a01b0390911681526020015b60405180910390f35b3480156100a357600080fd5b506100b76100b2366004611971565b610129565b604051901515815260200161008e565b3480156100d357600080fd5b506100e76100e2366004611a2b565b610980565b005b3480156100f557600080fd5b506100b7610104366004611ab0565b610db3565b34801561011557600080fd5b5060045461007a906001600160a01b031681565b600080600060405161014e906c3ab734b9bbb0b82937baba32b960991b8152600d0190565b908152604051908190036020018120546001600160a01b03169150600090819061017790611bb5565b9081526040805191829003602001822054908601516001600160a01b03908116911614915060009081906101aa90611bb5565b9081526040519081900360200190205487516001600160a01b039091169088906000906101d9576101d9611bc5565b60200260200101516001600160a01b031614905081806101f65750805b156104985760408051600280825260608201835260009260208301908036833701905050905082156102d257600060405161023090611bb5565b9081526040519081900360200190205481516001600160a01b0390911690829060009061025f5761025f611bc5565b60200260200101906001600160a01b031690816001600160a01b0316815250508760008151811061029257610292611bc5565b6020026020010151816001815181106102ad576102ad611bc5565b60200260200101906001600160a01b031690816001600160a01b031681525050610380565b876000815181106102e5576102e5611bc5565b60200260200101518160008151811061030057610300611bc5565b60200260200101906001600160a01b031690816001600160a01b031681525050600060405161032e90611bb5565b9081526040519081900360200190205481516001600160a01b03909116908290600190811061035f5761035f611bc5565b60200260200101906001600160a01b031690816001600160a01b0316815250505b6000846001600160a01b031663fb3bdb4188608001518a8530426040518663ffffffff1660e01b81526004016103b99493929190611c1f565b6000604051808303818588803b1580156103d257600080fd5b505af11580156103e6573d6000803e3d6000fd5b50505050506040513d6000823e601f3d908101601f1916820160405261040f9190810190611c54565b905060005b81518110156104565781818151811061042f5761042f611bc5565b60200260200101516000141561044457600080fd5b8061044e81611cfb565b915050610414565b506001546040516001600160a01b03909116904780156108fc02916000818181858888f19350505050158015610490573d6000803e3d6000fd5b505050610973565b60408051600380825260808201909252600091602082016060803683370190505090508560400151816000815181106104d3576104d3611bc5565b60200260200101906001600160a01b031690816001600160a01b031681525050600060405161050190611bb5565b9081526040519081900360200190205481516001600160a01b03909116908290600190811061053257610532611bc5565b60200260200101906001600160a01b031690816001600160a01b0316815250508760008151811061056557610565611bc5565b60200260200101518160028151811061058057610580611bc5565b6001600160a01b03928316602091820292909201015260408781015190516370a0823160e01b81523060048201529116906370a082319060240160206040518083038186803b1580156105d257600080fd5b505afa1580156105e6573d6000803e3d6000fd5b505050506040513d601f19601f8201168201806040525081019061060a9190611d16565b61061357600080fd5b6080860151604051634401edf760e11b81526000916001600160a01b03871691638803dbee9161064e918c9190879030904290600401611d2f565b600060405180830381600087803b15801561066857600080fd5b505af115801561067c573d6000803e3d6000fd5b505050506040513d6000823e601f3d908101601f191682016040526106a49190810190611c54565b905060005b81518110156106eb578181815181106106c4576106c4611bc5565b6020026020010151600014156106d957600080fd5b806106e381611cfb565b9150506106a9565b5060408088015190516370a0823160e01b81523060048201526001600160a01b03909116906370a082319060240160206040518083038186803b15801561073157600080fd5b505afa158015610745573d6000803e3d6000fd5b505050506040513d601f19601f820116820180604052508101906107699190611d16565b61077257600080fd5b60408051600280825260608201835290916020830190803683370190505091508660400151826000815181106107aa576107aa611bc5565b60200260200101906001600160a01b031690816001600160a01b03168152505060006040516107d890611bb5565b9081526040519081900360200190205482516001600160a01b03909116908390600190811061080957610809611bc5565b6001600160a01b03928316602091820292909201015260408881015190516370a0823160e01b8152306004820152878316926318cbafe59216906370a082319060240160206040518083038186803b15801561086457600080fd5b505afa158015610878573d6000803e3d6000fd5b505050506040513d601f19601f8201168201806040525081019061089c9190611d16565b6001546040516001600160e01b031960e085901b1681526108d292916000199188916001600160a01b0316904290600401611d2f565b600060405180830381600087803b1580156108ec57600080fd5b505af1158015610900573d6000803e3d6000fd5b505050506040513d6000823e601f3d908101601f191682016040526109289190810190611c54565b905060005b815181101561096f5781818151811061094857610948611bc5565b60200260200101516000141561095d57600080fd5b8061096781611cfb565b91505061092d565b5050505b5060019695505050505050565b73dac17f958d2ee523a2206206994597c13d831ec76001600160a01b0383161415610a2757816109bc6001600160a01b038216836000196114ed565b6004546109d8906001600160a01b0383811691166000196114ed565b610a2260006040516109fd906c3ab734b9bbb0b82937baba32b960991b8152600d0190565b908152604051908190036020019020546001600160a01b0383811691166000196114ed565b505050565b6000604051610a3590611bb5565b908152604051908190036020019020546001600160a01b0383811691161415610bdf576000604051610a6690611bb5565b90815260405190819003602001812054600280546001600160a01b0319166001600160a01b039283169081179091556004805463095ea7b360e01b8552919363095ea7b393610acf93169160001991016001600160a01b03929092168252602082015260400190565b602060405180830381600087803b158015610ae957600080fd5b505af1158015610afd573d6000803e3d6000fd5b505050506040513d601f19601f82011682018060405250810190610b219190611d6b565b506002546040516c3ab734b9bbb0b82937baba32b960991b81526001600160a01b039091169063095ea7b390600090600d01908152604051908190036020018120546001600160e01b031960e084901b1682526001600160a01b031660048201526000196024820152604401602060405180830381600087803b158015610ba757600080fd5b505af1158015610bbb573d6000803e3d6000fd5b505050506040513d601f19601f82011682018060405250810190610a229190611d6b565b60405163095ea7b360e01b81526001600160a01b038281166004830152600019602483015283919082169063095ea7b390604401602060405180830381600087803b158015610c2d57600080fd5b505af1158015610c41573d6000803e3d6000fd5b505050506040513d601f19601f82011682018060405250810190610c659190611d6b565b506004805460405163095ea7b360e01b81526001600160a01b0391821692810192909252600019602483015282169063095ea7b390604401602060405180830381600087803b158015610cb757600080fd5b505af1158015610ccb573d6000803e3d6000fd5b505050506040513d601f19601f82011682018060405250810190610cef9190611d6b565b50806001600160a01b031663095ea7b36000604051610d21906c3ab734b9bbb0b82937baba32b960991b8152600d0190565b908152604051908190036020018120546001600160e01b031960e084901b1682526001600160a01b031660048201526000196024820152604401602060405180830381600087803b158015610d7557600080fd5b505af1158015610d89573d6000803e3d6000fd5b505050506040513d601f19601f82011682018060405250810190610dad9190611d6b565b50505050565b6040805160a0810182526000808252602082018190529181018290526060810182905260808101829052600080808080610def888a018a611d8d565b6040805160a0810182526001600160a01b039687168152948616602086015292851684840152931660608301526080820192909252905190965060009550610e3c94509250611bb5915050565b908152604051908190036020019020546001600160a01b03168b8b600081610e6657610e66611bc5565b9050602002016020810190610e7b9190611df1565b6001600160a01b03161415610fa3576002546001600160a01b0316632e1a7d4d8a8a600081610eac57610eac611bc5565b905060200201356040518263ffffffff1660e01b8152600401610ed191815260200190565b600060405180830381600087803b158015610eeb57600080fd5b505af1158015610eff573d6000803e3d6000fd5b5050505080600001516001600160a01b031663aae40a2a8a8a6000818110610f2957610f29611bc5565b90506020020135836060015184602001516040518463ffffffff1660e01b8152600401610f6c9291906001600160a01b0392831681529116602082015260400190565b6000604051808303818588803b158015610f8557600080fd5b505af1158015610f99573d6000803e3d6000fd5b50505050506110b3565b80600001516001600160a01b031663f5e3c46282606001518b8b6000818110610fce57610fce611bc5565b9050602002013584602001516040518463ffffffff1660e01b8152600401611016939291906001600160a01b0393841681526020810192909252909116604082015260600190565b602060405180830381600087803b15801561103057600080fd5b505af1158015611044573d6000803e3d6000fd5b505050506040513d601f19601f820116820180604052508101906110689190611d16565b156110b35760405162461bcd60e51b81526020600482015260166024820152751b1a5c5d5a59185d19509bdc9c9bddc819985a5b195960521b60448201526064015b60405180910390fd5b60006040516110c190611bb5565b908152604080519182900360200190912054908201516001600160a01b03908116911614156112215760208101516040516370a0823160e01b81523060048201526001600160a01b039091169063db006a759082906370a082319060240160206040518083038186803b15801561113757600080fd5b505afa15801561114b573d6000803e3d6000fd5b505050506040513d601f19601f8201168201806040525081019061116f9190611d16565b6040518263ffffffff1660e01b815260040161118d91815260200190565b602060405180830381600087803b1580156111a757600080fd5b505af11580156111bb573d6000803e3d6000fd5b505050506040513d601f19601f820116820180604052508101906111df9190611d16565b1561121c5760405162461bcd60e51b815260206004820152600d60248201526c1c995919595b4819985a5b1959609a1b60448201526064016110aa565b61145f565b60208101516040516370a0823160e01b81523060048201526001600160a01b03909116906370a082319060240160206040518083038186803b15801561126657600080fd5b505afa15801561127a573d6000803e3d6000fd5b505050506040513d601f19601f8201168201806040525081019061129e9190611d16565b6112a757600080fd5b60208101516040516370a0823160e01b81523060048201526001600160a01b039091169063db006a759082906370a082319060240160206040518083038186803b1580156112f457600080fd5b505afa158015611308573d6000803e3d6000fd5b505050506040513d601f19601f8201168201806040525081019061132c9190611d16565b6040518263ffffffff1660e01b815260040161134a91815260200190565b602060405180830381600087803b15801561136457600080fd5b505af1158015611378573d6000803e3d6000fd5b505050506040513d601f19601f8201168201806040525081019061139c9190611d16565b156113d95760405162461bcd60e51b815260206004820152600d60248201526c1c995919595b4819985a5b1959609a1b60448201526064016110aa565b60408082015190516370a0823160e01b81523060048201526001600160a01b03909116906370a082319060240160206040518083038186803b15801561141e57600080fd5b505afa158015611432573d6000803e3d6000fd5b505050506040513d601f19601f820116820180604052508101906114569190611d16565b61145f57600080fd5b6114de8b8b8080602002602001604051908101604052809392919081815260200183836020028082843760009201829052506114d893508c92508b9150816114a9576114a9611bc5565b905060200201358c8c60008181106114c3576114c3611bc5565b9050602002013561166f90919063ffffffff16565b83610129565b9b9a5050505050505050505050565b8015806115765750604051636eb1769f60e11b81523060048201526001600160a01b03838116602483015284169063dd62ed3e9060440160206040518083038186803b15801561153c57600080fd5b505afa158015611550573d6000803e3d6000fd5b505050506040513d601f19601f820116820180604052508101906115749190611d16565b155b6115e15760405162461bcd60e51b815260206004820152603660248201527f5361666545524332303a20617070726f76652066726f6d206e6f6e2d7a65726f60448201527520746f206e6f6e2d7a65726f20616c6c6f77616e636560501b60648201526084016110aa565b604080516001600160a01b038416602482015260448082018490528251808303909101815260649091019091526020810180516001600160e01b031663095ea7b360e01b179052610a229084906116d5565b6000813f7fc5d2460186f7233c927e7db2dcc703c0e500b653ca82273b7bfad8045d85a47081811480159061166757508115155b949350505050565b60008061167c8385611e0e565b9050838110156116ce5760405162461bcd60e51b815260206004820152601b60248201527f536166654d6174683a206164646974696f6e206f766572666c6f77000000000060448201526064016110aa565b9392505050565b6116e7826001600160a01b0316611633565b6117335760405162461bcd60e51b815260206004820152601f60248201527f5361666545524332303a2063616c6c20746f206e6f6e2d636f6e74726163740060448201526064016110aa565b600080836001600160a01b03168360405161174e9190611e26565b6000604051808303816000865af19150503d806000811461178b576040519150601f19603f3d011682016040523d82523d6000602084013e611790565b606091505b5091509150816117e25760405162461bcd60e51b815260206004820181905260248201527f5361666545524332303a206c6f772d6c6576656c2063616c6c206661696c656460448201526064016110aa565b805115610dad57808060200190518101906117fd9190611d6b565b610dad5760405162461bcd60e51b815260206004820152602a60248201527f5361666545524332303a204552433230206f7065726174696f6e20646964206e6044820152691bdd081cdd58d8d9595960b21b60648201526084016110aa565b634e487b7160e01b600052604160045260246000fd5b604051601f8201601f1916810167ffffffffffffffff8111828210171561189b5761189b61185c565b604052919050565b600067ffffffffffffffff8211156118bd576118bd61185c565b5060051b60200190565b6001600160a01b03811681146118dc57600080fd5b50565b600060a082840312156118f157600080fd5b60405160a0810181811067ffffffffffffffff821117156119145761191461185c565b6040529050808235611925816118c7565b81526020830135611935816118c7565b60208201526040830135611948816118c7565b6040820152606083013561195b816118c7565b6060820152608092830135920191909152919050565b600080600060e0848603121561198657600080fd5b833567ffffffffffffffff81111561199d57600080fd5b8401601f810186136119ae57600080fd5b803560206119c36119be836118a3565b611872565b82815260059290921b830181019181810190898411156119e257600080fd5b938201935b83851015611a095784356119fa816118c7565b825293820193908201906119e7565b9650508601359350611a229150869050604086016118df565b90509250925092565b60008060408385031215611a3e57600080fd5b8235611a49816118c7565b91506020830135611a59816118c7565b809150509250929050565b60008083601f840112611a7657600080fd5b50813567ffffffffffffffff811115611a8e57600080fd5b6020830191508360208260051b8501011115611aa957600080fd5b9250929050565b600080600080600080600080600060a08a8c031215611ace57600080fd5b893567ffffffffffffffff80821115611ae657600080fd5b611af28d838e01611a64565b909b50995060208c0135915080821115611b0b57600080fd5b611b178d838e01611a64565b909950975060408c0135915080821115611b3057600080fd5b611b3c8d838e01611a64565b909750955060608c01359150611b51826118c7565b90935060808b01359080821115611b6757600080fd5b818c0191508c601f830112611b7b57600080fd5b813581811115611b8a57600080fd5b8d6020828501011115611b9c57600080fd5b6020830194508093505050509295985092959850929598565b630ae8aa8960e31b815260040190565b634e487b7160e01b600052603260045260246000fd5b600081518084526020808501945080840160005b83811015611c145781516001600160a01b031687529582019590820190600101611bef565b509495945050505050565b848152608060208201526000611c386080830186611bdb565b6001600160a01b03949094166040830152506060015292915050565b60006020808385031215611c6757600080fd5b825167ffffffffffffffff811115611c7e57600080fd5b8301601f81018513611c8f57600080fd5b8051611c9d6119be826118a3565b81815260059190911b82018301908381019087831115611cbc57600080fd5b928401925b82841015611cda57835182529284019290840190611cc1565b979650505050505050565b634e487b7160e01b600052601160045260246000fd5b6000600019821415611d0f57611d0f611ce5565b5060010190565b600060208284031215611d2857600080fd5b5051919050565b85815284602082015260a060408201526000611d4e60a0830186611bdb565b6001600160a01b0394909416606083015250608001529392505050565b600060208284031215611d7d57600080fd5b815180151581146116ce57600080fd5b600080600080600060a08688031215611da557600080fd5b8535611db0816118c7565b94506020860135611dc0816118c7565b93506040860135611dd0816118c7565b92506060860135611de0816118c7565b949793965091946080013592915050565b600060208284031215611e0357600080fd5b81356116ce816118c7565b60008219821115611e2157611e21611ce5565b500190565b6000825160005b81811015611e475760208186018101518583015201611e2d565b81811115611e56576000828501525b50919091019291505056fea26469706673582212209e5f4947de8715c5ee5d3e71754829cb73cb9c4a90af0cf2d31c89d5e58a7c5164736f6c63430008090033",
    "linkReferences": {}
  }
}