{
  "abi": [
    {
      "inputs": [],
      "stateMutability": "nonpayable",
      "type": "constructor"
    },
    {
      "inputs": [],
      "name": "ADDRESSES_PROVIDER",
      "outputs": [
        {
          "internalType": "contract ILendingPoolAddressesProvider",
          "name": "",
          "type": "address"
        }
      ],
      "stateMutability": "view",
      "type": "function"
    },
    {
      "inputs": [],
      "name": "LENDING_POOL",
      "outputs": [
        {
          "internalType": "contract ILendingPool",
          "name": "",
          "type": "address"
        }
      ],
      "stateMutability": "view",
      "type": "function"
    },
    {
      "inputs": [
        {
          "internalType": "address",
          "name": "symbol",
          "type": "address"
        },
        {
          "internalType": "address",
          "name": "csymbol",
          "type": "address"
        }
      ],
      "name": "approve",
      "outputs": [],
      "stateMutability": "nonpayable",
      "type": "function"
    },
    {
      "inputs": [
        {
          "internalType": "address[]",
          "name": "assets",
          "type": "address[]"
        },
        {
          "internalType": "uint256[]",
          "name": "amounts",
          "type": "uint256[]"
        },
        {
          "internalType": "uint256[]",
          "name": "premiums",
          "type": "uint256[]"
        },
        {
          "internalType": "address",
          "name": "initiator",
          "type": "address"
        },
        {
          "internalType": "bytes",
          "name": "params",
          "type": "bytes"
        }
      ],
      "name": "executeOperation",
      "outputs": [
        {
          "internalType": "bool",
          "name": "",
          "type": "bool"
        }
      ],
      "stateMutability": "nonpayable",
      "type": "function"
    },
    {
      "inputs": [
        {
          "internalType": "address[]",
          "name": "assets",
          "type": "address[]"
        },
        {
          "internalType": "uint256",
          "name": "amountOwed",
          "type": "uint256"
        },
        {
          "components": [
            {
              "internalType": "address",
              "name": "c_TOKEN_BORROWED",
              "type": "address"
            },
            {
              "internalType": "address",
              "name": "c_TOKEN_COLLATERAL",
              "type": "address"
            },
            {
              "internalType": "address",
              "name": "TOKEN_COLLATERAL",
              "type": "address"
            },
            {
              "internalType": "address",
              "name": "BORROWER",
              "type": "address"
            },
            {
              "internalType": "uint256",
              "name": "MAX_SEIZE_TOKENS_TO_SWAP_WITH",
              "type": "uint256"
            }
          ],
          "internalType": "struct Constants.LiquidationParameters",
          "name": "liqParams",
          "type": "tuple"
        }
      ],
      "name": "swap",
      "outputs": [
        {
          "internalType": "bool",
          "name": "",
          "type": "bool"
        }
      ],
      "stateMutability": "nonpayable",
      "type": "function"
    },
    {
      "stateMutability": "payable",
      "type": "receive"
    }
  ],
  "bytecode": {
    "object": "0x60806040523480156200001157600080fd5b50600180546001600160a01b03191633179055604051737a250d5630b4cf539739df2c5dacb4c659f2488d906000906200005e906c3ab734b9bbb0b82937baba32b960991b8152600d0190565b90815260408051918290036020908101832080546001600160a01b03959095166001600160a01b03199586161790557f636f6d706f756e64436f6d7074726f6c6c657200000000000000000000000000835260006013840181905282519384900360330184208054733d9819210a31b4961b30ef54be2aed79b9c9cd3b908716179055630ae8aa8960e31b84526004808501919091528251938490036024018420805473c02aaa39b223fe8d0a0e5c4f27ead9083c756cc29087161790556003805490951673b53c1a33016b2dc2ff3653530bff1848a515c8c5908117909555630261bf8b60e01b84529151630261bf8b938084019390829003018186803b1580156200016a57600080fd5b505afa1580156200017f573d6000803e3d6000fd5b505050506040513d601f19601f82011682018060405250810190620001a5919062000b67565b600480546001600160a01b0319166001600160a01b0392909216919091179055620001f9736b175474e89094c44da98b954eedeac495271d0f735d3a536e4d6dbd6114cc1ead35777bab948e3643620003aa565b6200022d732260fac5e5542a773aa44fbcfedf7c193bc2c59973c11b1268c1a384e55c48c2391d8d480264a3a7f4620003aa565b62000261730d8775f648430679a709e98d2b0cb6250d2887ef736c8c6b02e7b2be14d4fa6022dfd6d75921d90e4e620003aa565b62000295731f9840a85d5af5bf1d1762f925bdaddc4201f9847335a18000230da775cac24873d00ff85bccded550620003aa565b620002c973a0b86991c6218b36c1d19d4a2e9eb0ce3606eb487339aa39c021dfbae8fac545936693ac917d5e7563620003aa565b620002fd73e41d2489571d322189246dafa5ebde1f4699f49873b3319f5d18bc0d84dd1b4825dcde5d5f7266d407620003aa565b6200033173c00e94cb662c3520282e6f5717214004a7f268887370e36f6bf80a52b3b46b3af8e106cc0ed743e8e4620003aa565b6200036573dac17f958d2ee523a2206206994597c13d831ec773f650c3d88d12db855b8bf7d11be6c55a4e07dcc9620003aa565b620003a460006040516200038390630ae8aa8960e31b815260040190565b908152604051908190036020019020546001600160a01b03166000620003aa565b62000c15565b73dac17f958d2ee523a2206206994597c13d831ec76001600160a01b03831614156200047e5781620003f56001600160a01b038216836000196200082b602090811b6200145f17901c565b6004546200041f906001600160a01b0383811691166000196200082b602090811b6200145f17901c565b62000479600060405162000446906c3ab734b9bbb0b82937baba32b960991b8152600d0190565b90815260405160209181900382019020546001600160a01b0384811692911690600019906200082b811b6200145f17901c565b505050565b604051630ae8aa8960e31b8152600090600401908152604051908190036020019020546001600160a01b03838116911614156200064a57604051630ae8aa8960e31b815260009060040190815260405190819003602001812054600280546001600160a01b0319166001600160a01b039283169081179091556004805463095ea7b360e01b8552919363095ea7b3936200053293169160001991016001600160a01b03929092168252602082015260400190565b602060405180830381600087803b1580156200054d57600080fd5b505af115801562000562573d6000803e3d6000fd5b505050506040513d601f19601f8201168201806040525081019062000588919062000b99565b506002546040516c3ab734b9bbb0b82937baba32b960991b81526001600160a01b039091169063095ea7b390600090600d01908152604051908190036020018120546001600160e01b031960e084901b1682526001600160a01b031660048201526000196024820152604401602060405180830381600087803b1580156200060f57600080fd5b505af115801562000624573d6000803e3d6000fd5b505050506040513d601f19601f8201168201806040525081019062000479919062000b99565b60405163095ea7b360e01b81526001600160a01b038281166004830152600019602483015283919082169063095ea7b390604401602060405180830381600087803b1580156200069957600080fd5b505af1158015620006ae573d6000803e3d6000fd5b505050506040513d601f19601f82011682018060405250810190620006d4919062000b99565b506004805460405163095ea7b360e01b81526001600160a01b0391821692810192909252600019602483015282169063095ea7b390604401602060405180830381600087803b1580156200072757600080fd5b505af11580156200073c573d6000803e3d6000fd5b505050506040513d601f19601f8201168201806040525081019062000762919062000b99565b50806001600160a01b031663095ea7b3600060405162000795906c3ab734b9bbb0b82937baba32b960991b8152600d0190565b908152604051908190036020018120546001600160e01b031960e084901b1682526001600160a01b031660048201526000196024820152604401602060405180830381600087803b158015620007ea57600080fd5b505af1158015620007ff573d6000803e3d6000fd5b505050506040513d601f19601f8201168201806040525081019062000825919062000b99565b50505050565b801580620008b95750604051636eb1769f60e11b81523060048201526001600160a01b03838116602483015284169063dd62ed3e9060440160206040518083038186803b1580156200087c57600080fd5b505afa15801562000891573d6000803e3d6000fd5b505050506040513d601f19601f82011682018060405250810190620008b7919062000bbd565b155b620009315760405162461bcd60e51b815260206004820152603660248201527f5361666545524332303a20617070726f76652066726f6d206e6f6e2d7a65726f60448201527f20746f206e6f6e2d7a65726f20616c6c6f77616e63650000000000000000000060648201526084015b60405180910390fd5b604080516001600160a01b038416602482015260448082018490528251808303909101815260649091019091526020810180516001600160e01b0390811663095ea7b360e01b17909152620004799185916200098916565b620009a8826001600160a01b031662000b2a60201b620015a51760201c565b620009f65760405162461bcd60e51b815260206004820152601f60248201527f5361666545524332303a2063616c6c20746f206e6f6e2d636f6e747261637400604482015260640162000928565b600080836001600160a01b03168360405162000a13919062000bd7565b6000604051808303816000865af19150503d806000811462000a52576040519150601f19603f3d011682016040523d82523d6000602084013e62000a57565b606091505b50915091508162000aab5760405162461bcd60e51b815260206004820181905260248201527f5361666545524332303a206c6f772d6c6576656c2063616c6c206661696c6564604482015260640162000928565b80511562000825578080602001905181019062000ac9919062000b99565b620008255760405162461bcd60e51b815260206004820152602a60248201527f5361666545524332303a204552433230206f7065726174696f6e20646964206e6044820152691bdd081cdd58d8d9595960b21b606482015260840162000928565b6000813f7fc5d2460186f7233c927e7db2dcc703c0e500b653ca82273b7bfad8045d85a47081811480159062000b5f57508115155b949350505050565b60006020828403121562000b7a57600080fd5b81516001600160a01b038116811462000b9257600080fd5b9392505050565b60006020828403121562000bac57600080fd5b8151801515811462000b9257600080fd5b60006020828403121562000bd057600080fd5b5051919050565b6000825160005b8181101562000bfa576020818601810151858301520162000bde565b8181111562000c0a576000828501525b509190910192915050565b611e098062000c256000396000f3fe60806040526004361061004e5760003560e01c80630542975c1461005a5780634d37e54e146100975780637e5465ba146100c7578063920f5c84146100e9578063b4dcfc771461010957600080fd5b3661005557005b600080fd5b34801561006657600080fd5b5060035461007a906001600160a01b031681565b6040516001600160a01b0390911681526020015b60405180910390f35b3480156100a357600080fd5b506100b76100b23660046118e3565b610129565b604051901515815260200161008e565b3480156100d357600080fd5b506100e76100e236600461199d565b6109f5565b005b3480156100f557600080fd5b506100b7610104366004611a22565b610e28565b34801561011557600080fd5b5060045461007a906001600160a01b031681565b600080600060405161014e906c3ab734b9bbb0b82937baba32b960991b8152600d0190565b908152604051908190036020018120546001600160a01b03169150600090819061017790611b27565b9081526040805191829003602001822054908601516001600160a01b03908116911614915060009081906101aa90611b27565b9081526040519081900360200190205487516001600160a01b039091169088906000906101d9576101d9611b37565b60200260200101516001600160a01b03161480156102265750600060405161020090611b27565b908152604080519182900360200190912054908601516001600160a01b03908116911614155b9050811561040157604080516002808252606082018352600092602083019080368337019050509050600060405161025d90611b27565b9081526040519081900360200190205481516001600160a01b0390911690829060009061028c5761028c611b37565b60200260200101906001600160a01b031690816001600160a01b031681525050876000815181106102bf576102bf611b37565b6020026020010151816001815181106102da576102da611b37565b6001600160a01b039283166020918202929092010152608087015160405163fb3bdb4160e01b815260009287169163fb3bdb4191610322908c90879030904290600401611b91565b6000604051808303818588803b15801561033b57600080fd5b505af115801561034f573d6000803e3d6000fd5b50505050506040513d6000823e601f3d908101601f191682016040526103789190810190611bc6565b905060005b81518110156103bf5781818151811061039857610398611b37565b6020026020010151600014156103ad57600080fd5b806103b781611c6d565b91505061037d565b506001546040516001600160a01b03909116904780156108fc02916000818181858888f193505050501580156103f9573d6000803e3d6000fd5b5050506109e8565b801561050d576040805160028082526060820183526000926020830190803683370190505090508760008151811061043b5761043b611b37565b60200260200101518160008151811061045657610456611b37565b60200260200101906001600160a01b031690816001600160a01b031681525050600060405161048490611b27565b9081526040519081900360200190205481516001600160a01b0390911690829060019081106104b5576104b5611b37565b6001600160a01b039290921660209283029190910182015260405162461bcd60e51b81526004810191909152600f60248201526e1b9bdd081a5b5c1b195b595b9d1959608a1b60448201526064015b60405180910390fd5b604080516003808252608082019092526000916020820160608036833701905050905085604001518160008151811061054857610548611b37565b60200260200101906001600160a01b031690816001600160a01b031681525050600060405161057690611b27565b9081526040519081900360200190205481516001600160a01b0390911690829060019081106105a7576105a7611b37565b60200260200101906001600160a01b031690816001600160a01b031681525050876000815181106105da576105da611b37565b6020026020010151816002815181106105f5576105f5611b37565b6001600160a01b03928316602091820292909201015260408781015190516370a0823160e01b81523060048201529116906370a082319060240160206040518083038186803b15801561064757600080fd5b505afa15801561065b573d6000803e3d6000fd5b505050506040513d601f19601f8201168201806040525081019061067f9190611c88565b61068857600080fd5b6080860151604051634401edf760e11b81526000916001600160a01b03871691638803dbee916106c3918c9190879030904290600401611ca1565b600060405180830381600087803b1580156106dd57600080fd5b505af11580156106f1573d6000803e3d6000fd5b505050506040513d6000823e601f3d908101601f191682016040526107199190810190611bc6565b905060005b81518110156107605781818151811061073957610739611b37565b60200260200101516000141561074e57600080fd5b8061075881611c6d565b91505061071e565b5060408088015190516370a0823160e01b81523060048201526001600160a01b03909116906370a082319060240160206040518083038186803b1580156107a657600080fd5b505afa1580156107ba573d6000803e3d6000fd5b505050506040513d601f19601f820116820180604052508101906107de9190611c88565b6107e757600080fd5b604080516002808252606082018352909160208301908036833701905050915086604001518260008151811061081f5761081f611b37565b60200260200101906001600160a01b031690816001600160a01b031681525050600060405161084d90611b27565b9081526040519081900360200190205482516001600160a01b03909116908390600190811061087e5761087e611b37565b6001600160a01b03928316602091820292909201015260408881015190516370a0823160e01b8152306004820152878316926318cbafe59216906370a082319060240160206040518083038186803b1580156108d957600080fd5b505afa1580156108ed573d6000803e3d6000fd5b505050506040513d601f19601f820116820180604052508101906109119190611c88565b6001546040516001600160e01b031960e085901b16815261094792916000199188916001600160a01b0316904290600401611ca1565b600060405180830381600087803b15801561096157600080fd5b505af1158015610975573d6000803e3d6000fd5b505050506040513d6000823e601f3d908101601f1916820160405261099d9190810190611bc6565b905060005b81518110156109e4578181815181106109bd576109bd611b37565b6020026020010151600014156109d257600080fd5b806109dc81611c6d565b9150506109a2565b5050505b5060019695505050505050565b73dac17f958d2ee523a2206206994597c13d831ec76001600160a01b0383161415610a9c5781610a316001600160a01b0382168360001961145f565b600454610a4d906001600160a01b03838116911660001961145f565b610a976000604051610a72906c3ab734b9bbb0b82937baba32b960991b8152600d0190565b908152604051908190036020019020546001600160a01b03838116911660001961145f565b505050565b6000604051610aaa90611b27565b908152604051908190036020019020546001600160a01b0383811691161415610c54576000604051610adb90611b27565b90815260405190819003602001812054600280546001600160a01b0319166001600160a01b039283169081179091556004805463095ea7b360e01b8552919363095ea7b393610b4493169160001991016001600160a01b03929092168252602082015260400190565b602060405180830381600087803b158015610b5e57600080fd5b505af1158015610b72573d6000803e3d6000fd5b505050506040513d601f19601f82011682018060405250810190610b969190611cdd565b506002546040516c3ab734b9bbb0b82937baba32b960991b81526001600160a01b039091169063095ea7b390600090600d01908152604051908190036020018120546001600160e01b031960e084901b1682526001600160a01b031660048201526000196024820152604401602060405180830381600087803b158015610c1c57600080fd5b505af1158015610c30573d6000803e3d6000fd5b505050506040513d601f19601f82011682018060405250810190610a979190611cdd565b60405163095ea7b360e01b81526001600160a01b038281166004830152600019602483015283919082169063095ea7b390604401602060405180830381600087803b158015610ca257600080fd5b505af1158015610cb6573d6000803e3d6000fd5b505050506040513d601f19601f82011682018060405250810190610cda9190611cdd565b506004805460405163095ea7b360e01b81526001600160a01b0391821692810192909252600019602483015282169063095ea7b390604401602060405180830381600087803b158015610d2c57600080fd5b505af1158015610d40573d6000803e3d6000fd5b505050506040513d601f19601f82011682018060405250810190610d649190611cdd565b50806001600160a01b031663095ea7b36000604051610d96906c3ab734b9bbb0b82937baba32b960991b8152600d0190565b908152604051908190036020018120546001600160e01b031960e084901b1682526001600160a01b031660048201526000196024820152604401602060405180830381600087803b158015610dea57600080fd5b505af1158015610dfe573d6000803e3d6000fd5b505050506040513d601f19601f82011682018060405250810190610e229190611cdd565b50505050565b6040805160a0810182526000808252602082018190529181018290526060810182905260808101829052600080808080610e64888a018a611cff565b6040805160a0810182526001600160a01b039687168152948616602086015292851684840152931660608301526080820192909252905190965060009550610eb194509250611b27915050565b908152604051908190036020019020546001600160a01b03168b8b600081610edb57610edb611b37565b9050602002016020810190610ef09190611d63565b6001600160a01b03161415611018576002546001600160a01b0316632e1a7d4d8a8a600081610f2157610f21611b37565b905060200201356040518263ffffffff1660e01b8152600401610f4691815260200190565b600060405180830381600087803b158015610f6057600080fd5b505af1158015610f74573d6000803e3d6000fd5b5050505080600001516001600160a01b031663aae40a2a8a8a6000818110610f9e57610f9e611b37565b90506020020135836060015184602001516040518463ffffffff1660e01b8152600401610fe19291906001600160a01b0392831681529116602082015260400190565b6000604051808303818588803b158015610ffa57600080fd5b505af115801561100e573d6000803e3d6000fd5b5050505050611123565b80600001516001600160a01b031663f5e3c46282606001518b8b600081811061104357611043611b37565b9050602002013584602001516040518463ffffffff1660e01b815260040161108b939291906001600160a01b0393841681526020810192909252909116604082015260600190565b602060405180830381600087803b1580156110a557600080fd5b505af11580156110b9573d6000803e3d6000fd5b505050506040513d601f19601f820116820180604052508101906110dd9190611c88565b156111235760405162461bcd60e51b81526020600482015260166024820152751b1a5c5d5a59185d19509bdc9c9bddc819985a5b195960521b6044820152606401610504565b600060405161113190611b27565b908152604080519182900360200190912054908201516001600160a01b03908116911614156112985760208101516040516370a0823160e01b81523060048201526001600160a01b039091169063db006a759082906370a082319060240160206040518083038186803b1580156111a757600080fd5b505afa1580156111bb573d6000803e3d6000fd5b505050506040513d601f19601f820116820180604052508101906111df9190611c88565b6040518263ffffffff1660e01b81526004016111fd91815260200190565b602060405180830381600087803b15801561121757600080fd5b505af115801561122b573d6000803e3d6000fd5b505050506040513d601f19601f8201168201806040525081019061124f9190611c88565b156112935760405162461bcd60e51b81526020600482015260146024820152731c995919595b4818d95d1a195c8819985a5b195960621b6044820152606401610504565b6113d1565b60208101516040516370a0823160e01b81523060048201526001600160a01b039091169063db006a759082906370a082319060240160206040518083038186803b1580156112e557600080fd5b505afa1580156112f9573d6000803e3d6000fd5b505050506040513d601f19601f8201168201806040525081019061131d9190611c88565b6040518263ffffffff1660e01b815260040161133b91815260200190565b602060405180830381600087803b15801561135557600080fd5b505af1158015611369573d6000803e3d6000fd5b505050506040513d601f19601f8201168201806040525081019061138d9190611c88565b156113d15760405162461bcd60e51b81526020600482015260146024820152731c995919595b4818dd1bdad95b8819985a5b195960621b6044820152606401610504565b6114508b8b80806020026020016040519081016040528093929190818152602001838360200280828437600092018290525061144a93508c92508b91508161141b5761141b611b37565b905060200201358c8c600081811061143557611435611b37565b905060200201356115e190919063ffffffff16565b83610129565b9b9a5050505050505050505050565b8015806114e85750604051636eb1769f60e11b81523060048201526001600160a01b03838116602483015284169063dd62ed3e9060440160206040518083038186803b1580156114ae57600080fd5b505afa1580156114c2573d6000803e3d6000fd5b505050506040513d601f19601f820116820180604052508101906114e69190611c88565b155b6115535760405162461bcd60e51b815260206004820152603660248201527f5361666545524332303a20617070726f76652066726f6d206e6f6e2d7a65726f60448201527520746f206e6f6e2d7a65726f20616c6c6f77616e636560501b6064820152608401610504565b604080516001600160a01b038416602482015260448082018490528251808303909101815260649091019091526020810180516001600160e01b031663095ea7b360e01b179052610a97908490611647565b6000813f7fc5d2460186f7233c927e7db2dcc703c0e500b653ca82273b7bfad8045d85a4708181148015906115d957508115155b949350505050565b6000806115ee8385611d80565b9050838110156116405760405162461bcd60e51b815260206004820152601b60248201527f536166654d6174683a206164646974696f6e206f766572666c6f7700000000006044820152606401610504565b9392505050565b611659826001600160a01b03166115a5565b6116a55760405162461bcd60e51b815260206004820152601f60248201527f5361666545524332303a2063616c6c20746f206e6f6e2d636f6e7472616374006044820152606401610504565b600080836001600160a01b0316836040516116c09190611d98565b6000604051808303816000865af19150503d80600081146116fd576040519150601f19603f3d011682016040523d82523d6000602084013e611702565b606091505b5091509150816117545760405162461bcd60e51b815260206004820181905260248201527f5361666545524332303a206c6f772d6c6576656c2063616c6c206661696c65646044820152606401610504565b805115610e22578080602001905181019061176f9190611cdd565b610e225760405162461bcd60e51b815260206004820152602a60248201527f5361666545524332303a204552433230206f7065726174696f6e20646964206e6044820152691bdd081cdd58d8d9595960b21b6064820152608401610504565b634e487b7160e01b600052604160045260246000fd5b604051601f8201601f1916810167ffffffffffffffff8111828210171561180d5761180d6117ce565b604052919050565b600067ffffffffffffffff82111561182f5761182f6117ce565b5060051b60200190565b6001600160a01b038116811461184e57600080fd5b50565b600060a0828403121561186357600080fd5b60405160a0810181811067ffffffffffffffff82111715611886576118866117ce565b604052905080823561189781611839565b815260208301356118a781611839565b602082015260408301356118ba81611839565b604082015260608301356118cd81611839565b6060820152608092830135920191909152919050565b600080600060e084860312156118f857600080fd5b833567ffffffffffffffff81111561190f57600080fd5b8401601f8101861361192057600080fd5b8035602061193561193083611815565b6117e4565b82815260059290921b8301810191818101908984111561195457600080fd5b938201935b8385101561197b57843561196c81611839565b82529382019390820190611959565b9650508601359350611994915086905060408601611851565b90509250925092565b600080604083850312156119b057600080fd5b82356119bb81611839565b915060208301356119cb81611839565b809150509250929050565b60008083601f8401126119e857600080fd5b50813567ffffffffffffffff811115611a0057600080fd5b6020830191508360208260051b8501011115611a1b57600080fd5b9250929050565b600080600080600080600080600060a08a8c031215611a4057600080fd5b893567ffffffffffffffff80821115611a5857600080fd5b611a648d838e016119d6565b909b50995060208c0135915080821115611a7d57600080fd5b611a898d838e016119d6565b909950975060408c0135915080821115611aa257600080fd5b611aae8d838e016119d6565b909750955060608c01359150611ac382611839565b90935060808b01359080821115611ad957600080fd5b818c0191508c601f830112611aed57600080fd5b813581811115611afc57600080fd5b8d6020828501011115611b0e57600080fd5b6020830194508093505050509295985092959850929598565b630ae8aa8960e31b815260040190565b634e487b7160e01b600052603260045260246000fd5b600081518084526020808501945080840160005b83811015611b865781516001600160a01b031687529582019590820190600101611b61565b509495945050505050565b848152608060208201526000611baa6080830186611b4d565b6001600160a01b03949094166040830152506060015292915050565b60006020808385031215611bd957600080fd5b825167ffffffffffffffff811115611bf057600080fd5b8301601f81018513611c0157600080fd5b8051611c0f61193082611815565b81815260059190911b82018301908381019087831115611c2e57600080fd5b928401925b82841015611c4c57835182529284019290840190611c33565b979650505050505050565b634e487b7160e01b600052601160045260246000fd5b6000600019821415611c8157611c81611c57565b5060010190565b600060208284031215611c9a57600080fd5b5051919050565b85815284602082015260a060408201526000611cc060a0830186611b4d565b6001600160a01b0394909416606083015250608001529392505050565b600060208284031215611cef57600080fd5b8151801515811461164057600080fd5b600080600080600060a08688031215611d1757600080fd5b8535611d2281611839565b94506020860135611d3281611839565b93506040860135611d4281611839565b92506060860135611d5281611839565b949793965091946080013592915050565b600060208284031215611d7557600080fd5b813561164081611839565b60008219821115611d9357611d93611c57565b500190565b6000825160005b81811015611db95760208186018101518583015201611d9f565b81811115611dc8576000828501525b50919091019291505056fea2646970667358221220497b25d5a83946ceaefe190e1b4d67894a49328824c20ca74247db56ed694fe264736f6c63430008090033",
    "linkReferences": {}
  }
}