{
  "abi": [
    {
      "inputs": [],
      "name": "ADDRESSES_PROVIDER",
      "outputs": [
        {
          "internalType": "contract ILendingPoolAddressesProvider",
          "name": "",
          "type": "address"
        }
      ],
      "stateMutability": "view",
      "type": "function"
    },
    {
      "inputs": [],
      "name": "LENDING_POOL",
      "outputs": [
        {
          "internalType": "contract ILendingPool",
          "name": "",
          "type": "address"
        }
      ],
      "stateMutability": "view",
      "type": "function"
    },
    {
      "inputs": [
        {
          "internalType": "string",
          "name": "symbol",
          "type": "string"
        }
      ],
      "name": "approve",
      "outputs": [],
      "stateMutability": "nonpayable",
      "type": "function"
    },
    {
      "inputs": [
        {
          "internalType": "address[]",
          "name": "assets",
          "type": "address[]"
        },
        {
          "internalType": "uint256[]",
          "name": "amounts",
          "type": "uint256[]"
        },
        {
          "internalType": "uint256[]",
          "name": "premiums",
          "type": "uint256[]"
        },
        {
          "internalType": "address",
          "name": "initiator",
          "type": "address"
        },
        {
          "internalType": "bytes",
          "name": "params",
          "type": "bytes"
        }
      ],
      "name": "executeOperation",
      "outputs": [
        {
          "internalType": "bool",
          "name": "",
          "type": "bool"
        }
      ],
      "stateMutability": "nonpayable",
      "type": "function"
    },
    {
      "inputs": [],
      "name": "initialize",
      "outputs": [],
      "stateMutability": "nonpayable",
      "type": "function"
    },
    {
      "stateMutability": "payable",
      "type": "receive"
    }
  ],
  "bytecode": {
    "object": "0x608060405234801561001057600080fd5b50612355806100206000396000f3fe60806040526004361061004e5760003560e01c80630542975c1461005a5780638129fc1c14610097578063920f5c84146100ae578063b4dcfc77146100de578063b67b7163146100fe57600080fd5b3661005557005b600080fd5b34801561006657600080fd5b50600c5461007a906001600160a01b031681565b6040516001600160a01b0390911681526020015b60405180910390f35b3480156100a357600080fd5b506100ac61011e565b005b3480156100ba57600080fd5b506100ce6100c9366004611dea565b610b02565b604051901515815260200161008e565b3480156100ea57600080fd5b50600d5461007a906001600160a01b031681565b34801561010a57600080fd5b506100ac610119366004611f36565b61175c565b600054610100900460ff1680610137575060005460ff16155b61019f5760405162461bcd60e51b815260206004820152602e60248201527f496e697469616c697a61626c653a20636f6e747261637420697320616c72656160448201526d191e481a5b9a5d1a585b1a5e995960921b60648201526084015b60405180910390fd5b600054610100900460ff161580156101c1576000805461ffff19166101011790555b600280546001600160a01b0319163317905560001960045560405173b53c1a33016b2dc2ff3653530bff1848a515c8c590600190610222907f616176654c656e64696e67506f6f6c41646472657373657350726f7669646572815260200190565b9081526040805160209281900392909201822080546001600160a01b03199081166001600160a01b03959095169490941790556c3ab734b9bbb0b82937baba32b960991b82526001600d83018190528151602d9381900393909301832080548516737a250d5630b4cf539739df2c5dacb4c659f2488d1790557231b7b6b837bab73221b7b6b83a3937b63632b960691b835260138301819052815160339381900393909301832080548516733d9819210a31b4961b30ef54be2aed79b9c9cd3b179055630c68aa8960e31b8352600480840182905282516024948190038501812080548716734ddc2d193948926d02f9b1fe9e1daa0718270ed5179055636344414960e01b81528082018390528351908190038501812080548716735d3a536e4d6dbd6114cc1ead35777bab948e364317905564635742544360d81b815260058082018490528451602592819003830181208054891673c11b1268c1a384e55c48c2391d8d480264a3a7f41790556318d0905560e21b81528084018590528551908190038701812080548916736c8c6b02e7b2be14d4fa6022dfd6d75921d90e4e1790556363554e4960e01b815280840185905285519081900387018120805489167335a18000230da775cac24873d00ff85bccded55017905564635553444360d81b815280820185905285519081900383018120805489167339aa39c021dfbae8fac545936693ac917d5e75631790556418d554d11560da1b8152808201859052855190819003830181208054891673f650c3d88d12db855b8bf7d11be6c55a4e07dcc9179055630c6b4a4b60e31b815292830184905284519283900390950182208054871673b3319f5d18bc0d84dd1b4825dcde5d5f7266d40717905564063434f4d560dc1b8252938101829052915191829003909201812080549093167370e36f6bf80a52b3b46b3af8e106cc0ed743e8e41790925573c02aaa39b223fe8d0a0e5c4f27ead9083c756cc2916104fa90611fcb565b908152604080516020928190038301812080546001600160a01b03199081166001600160a01b0396871617909155635553444360e01b8252600160048084018290528451602494819003850181208054851673a0b86991c6218b36c1d19d4a2e9eb0ce3606eb481790556244414960e81b8152600380820184905286516023928190038301812080548716736b175474e89094c44da98b954eedeac495271d0f179055635742544360e01b81528084018590528751908190038701812080548716732260fac5e5542a773aa44fbcfedf7c193bc2c5991790556210905560ea1b81528082018590528751908190038301812080548716730d8775f648430679a709e98d2b0cb6250d2887ef17905562554e4960e81b81528082018590528751908190038301812080548716731f9840a85d5af5bf1d1762f925bdaddc4201f984179055620b4a4b60eb1b815290810184905286519081900390910181208054851673e41d2489571d322189246dafa5ebde1f4699f498179055631554d11560e21b8152808201839052855190819003850181208054851673dac17f958d2ee523a2206206994597c13d831ec7179055630434f4d560e41b815280820183905285519081900390940184208054841673c00e94cb662c3520282e6f5717214004a7f268881790557f616176654c656e64696e67506f6f6c41646472657373657350726f76696465728452838601919091528351928390038401832054600c80549093169616958617909155630261bf8b60e01b82529151630261bf8b93828401939092829003018186803b15801561075057600080fd5b505afa158015610764573d6000803e3d6000fd5b505050506040513d601f19601f820116820180604052508101906107889190611fdb565b600d80546001600160a01b0319166001600160a01b039290921691909117905560408051808201909152600381526244414960e81b60208201526107cb9061175c565b6107f0604051806040016040528060048152602001635742544360e01b81525061175c565b6108146040518060400160405280600381526020016210905560ea1b81525061175c565b61083860405180604001604052806003815260200162554e4960e81b81525061175c565b61085d604051806040016040528060048152602001635553444360e01b81525061175c565b610881604051806040016040528060038152602001620b4a4b60eb1b81525061175c565b6108a6604051806040016040528060048152602001630434f4d560e41b81525061175c565b600060016040516108c190631554d11560e21b815260040190565b908152604051908190036020018120546001600160a01b0316915061091e906001906108f8906418d554d11560da1b815260050190565b908152604051908190036020019020546004546001600160a01b03848116921690611999565b600d5460045461093c916001600160a01b0384811692911690611999565b61096160016040516108f8906c3ab734b9bbb0b82937baba32b960991b8152600d0190565b600160405161096f90611fcb565b90815260405190819003602001812054600380546001600160a01b0319166001600160a01b03928316908117909155600d546004805463095ea7b360e01b8652929463095ea7b3946109d99493169291016001600160a01b03929092168252602082015260400190565b602060405180830381600087803b1580156109f357600080fd5b505af1158015610a07573d6000803e3d6000fd5b505050506040513d601f19601f82011682018060405250810190610a2b9190611ff8565b506003546040516c3ab734b9bbb0b82937baba32b960991b81526001600160a01b039091169063095ea7b390600190600d0190815260405190819003602001812054600480546001600160e01b031960e086901b1684526001600160a01b03909216908301526024820152604401602060405180830381600087803b158015610ab357600080fd5b505af1158015610ac7573d6000803e3d6000fd5b505050506040513d601f19601f82011682018060405250810190610aeb9190611ff8565b50508015610aff576000805461ff00191690555b50565b6000610b4383838080601f016020809104026020016040519081016040528093929190818152602001838380828437600092019190915250611adf92505050565b60006001604051610b6d907231b7b6b837bab73221b7b6b83a3937b63632b960691b815260130190565b90815260408051602092819003830181205460055460018084528385019094526001600160a01b03918216955016926000929080830190803683370190505090508181600081518110610bc257610bc261201a565b6001600160a01b03928316602091820292909201015260095460405162e1ed9760e51b815285831692631c3db2e092610c02929116908590600401612030565b600060405180830381600087803b158015610c1c57600080fd5b505af1158015610c30573d6000803e3d6000fd5b5050505050505060006001604051610c4790611fcb565b908152604051908190036020019020546006546001600160a01b0390811691161415610d7257600354600a54604051632e1a7d4d60e01b81526001600160a01b0390921691632e1a7d4d91610ca29160040190815260200190565b600060405180830381600087803b158015610cbc57600080fd5b505af1158015610cd0573d6000803e3d6000fd5b5050505060006001604051610cef90630c68aa8960e31b815260040190565b90815260405190819003602001812054600a54600954600754635572051560e11b85526001600160a01b039182166004860152811660248501529091169250829163aae40a2a91906044016000604051808303818588803b158015610d5357600080fd5b505af1158015610d67573d6000803e3d6000fd5b505050505050610e55565b600554600954600a54600754604051637af1e23160e11b81526001600160a01b039384166004820152602481019290925282166044820152911690819063f5e3c46290606401602060405180830381600087803b158015610dd257600080fd5b505af1158015610de6573d6000803e3d6000fd5b505050506040513d601f19601f82011682018060405250810190610e0a919061208c565b91508115610e535760405162461bcd60e51b81526020600482015260166024820152751b1a5c5d5a59185d19509bdc9c9bddc819985a5b195960521b6044820152606401610196565b505b6001604051610e6390611fcb565b908152604051908190036020019020546008546001600160a01b0390811691161415610faa5760006001604051610ea490630c68aa8960e31b815260040190565b908152604051908190036020018120546370a0823160e01b82523060048301526001600160a01b03169150819063db006a759082906370a082319060240160206040518083038186803b158015610efa57600080fd5b505afa158015610f0e573d6000803e3d6000fd5b505050506040513d601f19601f82011682018060405250810190610f32919061208c565b6040518263ffffffff1660e01b8152600401610f5091815260200190565b602060405180830381600087803b158015610f6a57600080fd5b505af1158015610f7e573d6000803e3d6000fd5b505050506040513d601f19601f82011682018060405250810190610fa2919061208c565b9150506110a3565b6007546040516370a0823160e01b81523060048201526001600160a01b0390911690819063db006a759082906370a082319060240160206040518083038186803b158015610ff757600080fd5b505afa15801561100b573d6000803e3d6000fd5b505050506040513d601f19601f8201168201806040525081019061102f919061208c565b6040518263ffffffff1660e01b815260040161104d91815260200190565b602060405180830381600087803b15801561106757600080fd5b505af115801561107b573d6000803e3d6000fd5b505050506040513d601f19601f8201168201806040525081019061109f919061208c565b9150505b80156110e15760405162461bcd60e51b815260206004820152600d60248201526c1c995919595b4819985a5b1959609a1b6044820152606401610196565b60006001604051611105906c3ab734b9bbb0b82937baba32b960991b8152600d0190565b908152604080519182900360209081018320546003808552608085019093526001600160a01b0316935060009291908201606080368337505060085482519293506001600160a01b0316918391506000906111625761116261201a565b60200260200101906001600160a01b031690816001600160a01b031681525050600160405161119090611fcb565b9081526040519081900360200190205481516001600160a01b0390911690829060019081106111c1576111c161201a565b6001600160a01b0392831660209182029290920101526006548251911690829060029081106111f2576111f261201a565b60200260200101906001600160a01b031690816001600160a01b031681525050600160405161122090611fcb565b908152604051908190036020019020546008546001600160a01b03908116911614156112f9576040805160028082526060820183529091602083019080368337019050509050600160405161127490611fcb565b9081526040519081900360200190205481516001600160a01b039091169082906000906112a3576112a361201a565b6001600160a01b0392831660209182029290920101526006548251911690829060019081106112d4576112d461201a565b60200260200101906001600160a01b031690816001600160a01b0316815250506113ed565b600160405161130790611fcb565b908152604051908190036020019020546006546001600160a01b03908116911614156113ed576040805160028082526060820183529091602083019080368337505060085482519293506001600160a01b03169183915060009061136d5761136d61201a565b60200260200101906001600160a01b031690816001600160a01b031681525050600160405161139b90611fcb565b9081526040519081900360200190205481516001600160a01b0390911690829060019081106113cc576113cc61201a565b60200260200101906001600160a01b031690816001600160a01b0316815250505b60006114348a8a60008181106114055761140561201a565b905060200201358d8d600081811061141f5761141f61201a565b90506020020135611b5a90919063ffffffff16565b9050600160405161144490611fcb565b908152604051908190036020019020546008546001600160a01b0390811691161415611536576000836001600160a01b031663fb3bdb4147848630426040518663ffffffff1660e01b815260040161149f94939291906120e9565b6000604051808303818588803b1580156114b857600080fd5b505af11580156114cc573d6000803e3d6000fd5b50505050506040513d6000823e601f3d908101601f191682016040526114f5919081019061211e565b6002546040519192506001600160a01b0316904780156108fc02916000818181858888f1935050505015801561152f573d6000803e3d6000fd5b5050611748565b6008546040516370a0823160e01b81523060048201526001600160a01b039182169160009190861690638803dbee90859085906370a082319060240160206040518083038186803b15801561158a57600080fd5b505afa15801561159e573d6000803e3d6000fd5b505050506040513d601f19601f820116820180604052508101906115c2919061208c565b8730426040518663ffffffff1660e01b81526004016115e59594939291906121c4565b600060405180830381600087803b1580156115ff57600080fd5b505af1158015611613573d6000803e3d6000fd5b505050506040513d6000823e601f3d908101601f1916820160405261163b919081019061211e565b6002546040516370a0823160e01b81523060048201529192506001600160a01b038481169263a9059cbb92919091169083906370a082319060240160206040518083038186803b15801561168e57600080fd5b505afa1580156116a2573d6000803e3d6000fd5b505050506040513d601f19601f820116820180604052508101906116c6919061208c565b6040516001600160e01b031960e085901b1681526001600160a01b0390921660048301526024820152604401602060405180830381600087803b15801561170c57600080fd5b505af1158015611720573d6000803e3d6000fd5b505050506040513d601f19601f820116820180604052508101906117449190611ff8565b5050505b5060019d9c50505050505050505050505050565b600060018260405161176e919061222c565b90815260405160209181900382018120546001600160a01b03169250829163095ea7b3916001916117a191879101612248565b60408051601f19818403018152908290526117bb9161222c565b90815260405190819003602001812054600480546001600160e01b031960e086901b1684526001600160a01b03909216908301526024820152604401602060405180830381600087803b15801561181157600080fd5b505af1158015611825573d6000803e3d6000fd5b505050506040513d601f19601f820116820180604052508101906118499190611ff8565b50600d546004805460405163095ea7b360e01b81526001600160a01b039384169281019290925260248201529082169063095ea7b390604401602060405180830381600087803b15801561189c57600080fd5b505af11580156118b0573d6000803e3d6000fd5b505050506040513d601f19601f820116820180604052508101906118d49190611ff8565b50806001600160a01b031663095ea7b36001604051611906906c3ab734b9bbb0b82937baba32b960991b8152600d0190565b90815260405190819003602001812054600480546001600160e01b031960e086901b1684526001600160a01b03909216908301526024820152604401602060405180830381600087803b15801561195c57600080fd5b505af1158015611970573d6000803e3d6000fd5b505050506040513d601f19601f820116820180604052508101906119949190611ff8565b505050565b801580611a225750604051636eb1769f60e11b81523060048201526001600160a01b03838116602483015284169063dd62ed3e9060440160206040518083038186803b1580156119e857600080fd5b505afa1580156119fc573d6000803e3d6000fd5b505050506040513d601f19601f82011682018060405250810190611a20919061208c565b155b611a8d5760405162461bcd60e51b815260206004820152603660248201527f5361666545524332303a20617070726f76652066726f6d206e6f6e2d7a65726f60448201527520746f206e6f6e2d7a65726f20616c6c6f77616e636560501b6064820152608401610196565b604080516001600160a01b038416602482015260448082018490528251808303909101815260649091019091526020810180516001600160e01b031663095ea7b360e01b179052611994908490611bc0565b80806020019051810190611af39190612271565b600b55600a55600980546001600160a01b03199081166001600160a01b039384161790915560088054821693831693909317909255600780548316938216939093179092556006805482169383169390931790925560058054909216921691909117905550565b600080611b6783856122f9565b905083811015611bb95760405162461bcd60e51b815260206004820152601b60248201527f536166654d6174683a206164646974696f6e206f766572666c6f7700000000006044820152606401610196565b9392505050565b611bd2826001600160a01b0316611d4d565b611c1e5760405162461bcd60e51b815260206004820152601f60248201527f5361666545524332303a2063616c6c20746f206e6f6e2d636f6e7472616374006044820152606401610196565b600080836001600160a01b031683604051611c39919061222c565b6000604051808303816000865af19150503d8060008114611c76576040519150601f19603f3d011682016040523d82523d6000602084013e611c7b565b606091505b509150915081611ccd5760405162461bcd60e51b815260206004820181905260248201527f5361666545524332303a206c6f772d6c6576656c2063616c6c206661696c65646044820152606401610196565b805115611d475780806020019051810190611ce89190611ff8565b611d475760405162461bcd60e51b815260206004820152602a60248201527f5361666545524332303a204552433230206f7065726174696f6e20646964206e6044820152691bdd081cdd58d8d9595960b21b6064820152608401610196565b50505050565b6000813f7fc5d2460186f7233c927e7db2dcc703c0e500b653ca82273b7bfad8045d85a470818114801590611d8157508115155b949350505050565b60008083601f840112611d9b57600080fd5b50813567ffffffffffffffff811115611db357600080fd5b6020830191508360208260051b8501011115611dce57600080fd5b9250929050565b6001600160a01b0381168114610aff57600080fd5b600080600080600080600080600060a08a8c031215611e0857600080fd5b893567ffffffffffffffff80821115611e2057600080fd5b611e2c8d838e01611d89565b909b50995060208c0135915080821115611e4557600080fd5b611e518d838e01611d89565b909950975060408c0135915080821115611e6a57600080fd5b611e768d838e01611d89565b909750955060608c01359150611e8b82611dd5565b90935060808b01359080821115611ea157600080fd5b818c0191508c601f830112611eb557600080fd5b813581811115611ec457600080fd5b8d6020828501011115611ed657600080fd5b6020830194508093505050509295985092959850929598565b634e487b7160e01b600052604160045260246000fd5b604051601f8201601f1916810167ffffffffffffffff81118282101715611f2e57611f2e611eef565b604052919050565b60006020808385031215611f4957600080fd5b823567ffffffffffffffff80821115611f6157600080fd5b818501915085601f830112611f7557600080fd5b813581811115611f8757611f87611eef565b611f99601f8201601f19168501611f05565b91508082528684828501011115611faf57600080fd5b8084840185840137600090820190930192909252509392505050565b630ae8aa8960e31b815260040190565b600060208284031215611fed57600080fd5b8151611bb981611dd5565b60006020828403121561200a57600080fd5b81518015158114611bb957600080fd5b634e487b7160e01b600052603260045260246000fd5b6001600160a01b038381168252604060208084018290528451918401829052600092858201929091906060860190855b8181101561207e578551851683529483019491830191600101612060565b509098975050505050505050565b60006020828403121561209e57600080fd5b5051919050565b600081518084526020808501945080840160005b838110156120de5781516001600160a01b0316875295820195908201906001016120b9565b509495945050505050565b84815260806020820152600061210260808301866120a5565b6001600160a01b03949094166040830152506060015292915050565b6000602080838503121561213157600080fd5b825167ffffffffffffffff8082111561214957600080fd5b818501915085601f83011261215d57600080fd5b81518181111561216f5761216f611eef565b8060051b9150612180848301611f05565b818152918301840191848101908884111561219a57600080fd5b938501935b838510156121b85784518252938501939085019061219f565b98975050505050505050565b85815284602082015260a0604082015260006121e360a08301866120a5565b6001600160a01b0394909416606083015250608001529392505050565b60005b8381101561221b578181015183820152602001612203565b83811115611d475750506000910152565b6000825161223e818460208701612200565b9190910192915050565b606360f81b815260008251612264816001850160208701612200565b9190910160010192915050565b600080600080600080600060e0888a03121561228c57600080fd5b875161229781611dd5565b60208901519097506122a881611dd5565b60408901519096506122b981611dd5565b60608901519095506122ca81611dd5565b60808901519094506122db81611dd5565b8093505060a0880151915060c0880151905092959891949750929550565b6000821982111561231a57634e487b7160e01b600052601160045260246000fd5b50019056fea264697066735822122040a88e57e21f3e3c2d6495372e88d9ff555bfb48a8b6e75ab90eaacadc82df0664736f6c63430008090033",
    "linkReferences": {}
  }
}